:020000040800F2
:1000000000800120C50B0008150C0008150C000825
:10001000150C0008150C0008150C00080000000065
:10002000000000000000000000000000150C0008A7
:10003000150C000800000000150C0008AF0A0008AD
:10004000150C0008150C0008150C0008150C00080C
:10005000150C0008150C0008150C0008150C0008FC
:10006000150C0008150C0008150C0008150C0008EC
:10007000150C0008150C0008150C0008150C0008DC
:10008000150C0008150C0008150C000800000000F5
:10009000000000000000000000000000150C000837
:1000A000150C0008150C0008150C0008150C0008AC
:1000B000150C0008150C0008150C0008150C00089C
:1000C000150C0008150C0008150C0008150C00088C
:1000D000150C0008150C0008150C000800000000A5
:1000E000150C0008150C0008150C00080000000095
:1000F000000000000000000000000000150C0008D7
:1001000000000000150C0008150C0008150C000874
:1001100000000000000000000000000000000000DF
:10012000150C0008150C0008150C0008150C00082B
:10013000150C000800000000000000000000000096
:10014000000000000000000000000000150C000886
:10015000150C0008150C0008150C0008150C0008FB
:10016000150C0008150C000800000000000000003D
:10017000000000000000000000000000000000007F
:1001800000000000150C0008000000000000000046
:04019000150C000842
:1001940010B5054C237833B9044B13B10448AFF3BD
:1001A40000800123237010BD0C000020000000001B
:1001B400600C000808B5034B1BB103490348AFF3B7
:1001C400008008BD0000000010000020600C000842
:1001D40053B94AB9002908BF00281CBF4FF0FF31AA
:1001E4004FF0FF3000F072B9ADF1080C6DE904CEA8
:1001F40000F006F8DDF804E0DDE9022304B07047FE
:100204002DE9F047089E04468846002B4BD18A42CC
:10021400154667D9B2FA82F24AB1C2F1200701FA4F
:1002240002F320FA07F7954047EA030894404FEA9F
:10023400154E230CB8FBFEF71FFA85FC0EFB17883E
:1002440043EA084307FB0CF1994209D9EB1807F17B
:10025400FF3080F01B81994240F21881023F2B4409
:100264005B1AA4B2B3FBFEF00EFB103344EA034462
:1002740000FB0CFCA44509D92C1900F1FF3380F0D4
:100284000781A44540F2048102382C4440EA074027
:10029400A4EB0C0400271EB1D4400023C6E900439C
:1002A4003946BDE8F0878B4209D9002E00F0EB8077
:1002B4000027C6E9000138463946BDE8F087B3FA9D
:1002C40083F7002F47D18B4202D3824200F2FA8097
:1002D400841A61EB030301209846002EE0D0C6E99E
:1002E4000048DDE702B9FFDEB2FA82F2002A40F0EC
:1002F4008F80491B4FEA154E1FFA85F80127B1FB81
:10030400FEFC230C0EFB1C1143EA014308FB0CF119
:10031400994207D9EB180CF1FF3002D2994200F24E
:10032400CD808446591AA3B2B1FBFEF00EFB101423
:1003340043EA044408FB00F8A04507D92C1900F14E
:10034400FF3302D2A04500F2B6801846A4EB08049D
:1003540040EA0C409FE7C7F1200CBB4022FA0CFE98
:100364004EEA030E01FA07F420FA0CF521FA0CF315
:100374004FEA1E482543B3FBF8F92C0C08FB19334C
:100384001FFA8EFA44EA034309FB0AF49C4202FA78
:1003940007F200FA07F10BD91EEB030309F1FF3052
:1003A40080F087809C4240F28480A9F10209734462
:1003B4001B1BADB2B3FBF8F008FB103345EA034452
:1003C40000FB0AFAA24508D91EEB040400F1FF332E
:1003D4006BD2A24569D90238744440EA0940A0FBB3
:1003E4000289A4EB0A044C45C2464B4654D351D06F
:1003F400002E69D0B1EB0A0564EB030404FA0CFC8B
:10040400FD40FC404CEA0505C6E90054002747E7D7
:10041400C2F1200320FA03F7954001FA02F021FA11
:1004240003F34FEA154E3843010CB3FBFEF71FFAF2
:1004340085F80EFB173341EA034107FB08F38B42AF
:1004440004FA02F407D9691807F1FF3C2FD28B4252
:100454002DD9023F2944CB1A81B2B3FBFEF00EFB27
:10046400103341EA034100FB08F38B4207D96918B2
:1004740000F1FF3C17D28B4215D902382944C91A1E
:1004840040EA07473BE73746304609E70746E7E6D1
:100494001846FBE64145ABD2B8EB020A69EB0E0203
:1004A40001381346A4E76046E9E7184695E767462E
:1004B400D1E781467CE702382C4447E7ACF1020CD3
:1004C4002B442FE7384608E73746E9E6704700BF74
:1004D40010B504460E4B18784FF47A73B3FBF0F35F
:1004E4000C4A1068B0FBF3F000F090F868B90F2CD8
:1004F40001D901200AE0002221464FF0FF3000F02C
:1005040043F8034B5C60002000E0012010BD00BFF5
:10051400000000200800002008B50B4B1A6842F4C4
:1005240000721A601A6842F480621A601A6842F40F
:1005340080721A60032000F015F80020FFF7C8FF4E
:1005440000F0D8FA002008BD003C0240034A1168BC
:10055400034B1B780B441360704700BF2800002036
:1005640000000020074AD36823F4E0631B041B0C3B
:10057400000200F4E060184340F0BF6040F4003033
:10058400D060704700ED00E030B4174BDB68C3F374
:100594000223C3F10704042C28BF04241D1D062DC7
:1005A40018D9033B4FF0FF3505FA04F421EA04019E
:1005B400994005FA03F322EA0303194300280BDBED
:1005C4000901C9B200F1604000F5614080F80013F0
:1005D40030BC70470023E5E700F00F000901C9B201
:1005E400024B1954F4E700BF00ED00E014ED00E005
:1005F400002807DB00F01F02400901239340024A50
:1006040042F82030704700BF00E100E00138B0F14B
:10061400807F0AD2064B5860064AF02182F82310E4
:100624000020986007221A6070470120704700BFBD
:1006340010E000E000ED00E0704708B5FFF7FCFFB4
:1006440008BD000000230F2B00F2C580F0B583B075
:1006540039E0042200E00022AA403A4302345E4D0D
:1006640045F824205D4A1468F24302EA04054F6801
:1006740017F4803F01D046EA0405584C25606468AD
:1006840002EA04054F6817F4003F01D046EA040566
:10069400524C6560A46802EA04054F6817F4801F91
:1006A40001D046EA04054D4CA560E46822404D683B
:1006B40015F4001F01D046EA0402484CE2600133FD
:1006C4000F2B00F2868001229A400C6804EA02068D
:1006D400B242F4D14C68651E012D03D9112C01D00E
:1006E400122C12D185685F000324BC4025EA04055E
:1006F400CC68BC402C438460456825EA02054C68FC
:10070400C4F300129A402A434260C4685F00032283
:10071400BA40D24314408D68BD402543C5604C683F
:10072400022C01D0122C13D1DD08083550F825E035
:1007340003F007044FEA840C0F2404FA0CF42EEAA5
:10074400040E0C6904FA0CF444EA0E0440F8254043
:10075400046822404C6804F00304BC402243026055
:100764004A6812F0805FAAD0002201921C4A546C9D
:1007740044F480445464526C02F480420192019A1D
:100784009C08A51C144A52F8257003F00302950036
:100794000F22AA4027EA0207124A90423FF45BAFB5
:1007A40002F5806290420ED002F5806290420CD035
:1007B40002F5806290420AD002F5806290423FF4D2
:1007C40048AF072248E7012246E7022244E7032212
:1007D40042E703B0F0BD704700380140003C0140DF
:1007E4000038024000000240014B1868704700BF07
:1007F4000800002008B5FFF7F7FF044B9B68C3F31C
:100804008223034AD35CD84008BD00BF00380240AD
:10081400880C000808B5FFF7E7FF044B9B68C3F397
:100824004233034AD35CD84008BD00BF00380240BD
:10083400880C00082DE9F04B04460268136923F480
:100844004053C1680B4313618368026913434269CF
:100854001343C2691A430168CB6823F4164323F097
:100864000C031343CB600268536923F4407381691A
:100874000B435361C369B3F5004F3BD00368714A1E
:10088400934200F0AB8002F58062934200F0A680B0
:10089400FFF7B0FF4FF00009061849EB090716EB04
:1008A400000B47EB090C4FEACC0343EA5B734FEAB6
:1008B400CB0293469C4663689A009B0F10EB0B0097
:1008C40049EB0C01FFF784FC5F4DA5FB0032510995
:1008D400642202FB110213013233A5FB03235B09DB
:1008E40003F0F00202EB011203F00F03216813443A
:1008F4008B60A4E00368534A934239D002F58062C6
:10090400934235D0FFF776FF83464FF0000C06186C
:100914004CEB0C0716EB000847EB0C094FEAC90334
:1009240043EA58734FEAC802904699466268002128
:10093400921841EB01031BEB08004CEB0901FFF794
:1009440047FC414DA5FB00325109642202FB110210
:10095400D3003233A5FB03235B095A0002F4F87277
:1009640002EB011203F00703216813448B6066E075
:10097400FFF750FF80464FF00009061849EB0907BE
:1009840016EB000B47EB090C4FEACC0343EA5B730D
:100994004FEACB0293469C4662680021921841EBD1
:1009A400010318EB0B0049EB0C01FFF711FC264D7A
:1009B400A5FB00325109642202FB1102D300323339
:1009C400A5FB03235B095A0002F4F87202EB01123F
:1009D40003F00703216813448B6030E0FFF71AFF2C
:1009E4004FF00009061849EB090716EB000B47EB1B
:1009F400090C4FEACC0343EA5B734FEACB029346FC
:100A04009C4663689A009B0F10EB0B0049EB0C01AA
:100A1400FFF7DEFB0C4DA5FB00325109642202FBFB
:100A2400110213013233A5FB03235B0903F0F00227
:100A340002EB011203F00F03216813448B60BDE83D
:100A4400F08B00BF001001401F85EB5158B310B567
:100A5400044690F839300BB3242384F839302268E3
:100A6400D36823F40053D3602046FFF7E3FE2268E3
:100A7400136923F4904313612268536923F02A0312
:100A840053612268D36843F40053D3600020E063C9
:100A9400202384F8393084F83A3010BD80F8383097
:100AA40000F046F8D8E70120704708B5FFF74EFD7F
:100AB400FFF7C3FD08BDFEE708B50948094B03600D
:100AC4004FF4E133436000238360C36003618361B7
:100AD4000C234361FFF7BAFF00B908BDFFF7EBFF32
:100AE400900000200044004008B5FFF715FDFFF713
:100AF400E3FFFEE708B50320FFF734FD0B4A536A12
:100B040043F4E0235362002211466FF00B00FFF719
:100B14003BFD002211466FF00A00FFF735FD00226D
:100B240011466FF00900FFF72FFD08BD00ED00E04E
:100B340030B589B000240194184B1A6C42F4003289
:100B44001A641A6C02F400320192019A02941A6B2C
:100B540042F001021A631B6B03F001030293029B30
:100B64000423039302230493012305930694072388
:100B740007930B4D03A92846FFF764FD082303934D
:100B840003A92846FFF75EFD2620FFF731FD224624
:100B94000F212620FFF7F8FC09B030BD00380240D1
:100BA40000000240054BD3F8882042F47002C3F8D9
:100BB40088204FF000629A60704700BF00ED00E0AB
:100BC400DFF834D0002103E00C4B5B584350043170
:100BD4000B480C4B42189A42F6D30B4A02E000230E
:100BE40042F8043B094B9A42F9D3FFF7DBFF00F0CC
:100BF40011F8FFF779FF704700800120A00C00086E
:100C0400000000200C0000200C000020D000002078
:100C1400FEE7000070B50D4E0D4CA41BA41000257A
:100C2400A54209D10B4E0C4C00F018F8A41BA410DB
:100C34000025A54205D170BD56F8253098470135E9
:100C4400EEE756F8253098470135F2E7980C00088E
:100C5400980C0008980C00089C0C0008F8B500BF1C
:100C6400F8BC08BC9E467047F8B500BFF8BC08BC89
:040C74009E467047E1
:100C78000000000000000000010203040607080944
:080C880000000000010203045A
:080C900074F5FF7F0100000074
:040C9800B901000896
:040C9C0095010008B6
:0C0CA00001000000100000000024F4001F
:0400000508000BC51F
:00000001FF
